:020000040800F2
:100000003008002081020008C93C000811300008B7
:10001000C53C0008AD0600085D6E00080000000049
:10002000000000000000000000000000D95C000893
:10003000B106000800000000CD3C0008DD5C0008AF
:100040009B0200089B0200089B0200089B0200081C
:100050009B0200089B0200089B0200089B0200080C
:100060009B0200089B0200089B0200089B020008FC
:100070009B0200089B0200089B0200089B020008EC
:100080009B020008000000009B0200089B02000881
:100090009B0200089B0200089B0200089B020008CC
:1000A0009B0200089B020008F55C00089B02000808
:1000B000015D00080D5D00089B0200089B0200081E
:1000C0009B0200089B0200089B0200089B0200089C
:1000D0009B020008516E00089B0200089B0200086A
:1000E0009B0200089B0200089B0200089B0200087C
:1000F0009B0200089B0200089B0200080000000011
:10010000000000009B020008000000009B020008A5
:100110009B020008000000009B0200089B020008F0
:100120009B0200089B0200089B0200089B0200083B
:100130009B02000800000000000000009B02000875
:100140009B0200089B020008000000000000000065
:10015000000000000000000000000000000000009F
:100160000000000000000000000000009B020008EA
:100170009B020008000000000000000000000000DA
:10018000000000009B0200080000000000000000CA
:10019000000000000000000000000000000000005F
:1001A00000000000000000009B0200089B02000805
:1001B0009B0200089B0200089B0200080000000050
:1001C000000000009B02000800000000000000008A
:1001D0009B0200089B02000800F002F800F041F8C2
:1001E0000AA090E8000C82448344AAF10107DA4592
:1001F00001D100F036F8AFF2090EBAE80F0013F0A3
:10020000010F18BFFB1A43F0010318472C830000AD
:100210004C830000103A24BF78C878C1FAD852073E
:1002200024BF30C830C144BF04680C607047000070
:100230000023002400250026103A28BF78C1FBD8EF
:10024000520728BF30C148BF0B607047642900F0D7
:10025000F780002070471FB507F01CF81FBD10B5D0
:1002600010BD00F0E8F91146FFF7F5FF06F068FE53
:1002700000F006FA03B4FFF7F2FF03BC00F00EFA39
:100280000948804709480047FEE7FEE7FEE7FEE72A
:10029000FEE7FEE7FEE7FEE7FEE7FEE70448054966
:1002A000054A064B70470000E15C0008D9010008D0
:1002B00030020020300800203004002030040020EC
:1002C00053EA020C00F069802DE9F04B4FF0000674
:1002D000002B1FBFB3FA83F503FA05F424FA05F6E1
:1002E0005E4012BF1643B2FA82F502FA05F4C5F178
:1002F00020051EBF22FA05FC44EA0C04203556EA0C
:10030000044C4FEA144418BF641C4FF000084FF02F
:100310000009904271EB030C39D3002919BFB1FADF
:1003200081F701FA07F6B0FA80F700FA07F6C7F18D
:1003300020071EBF20FA07FC46EA0C062037B6FB52
:10034000F4FCA7EB0507103F07F01F0BCBF12006CD
:100350002CFA06F60CFA0BFB44BFB3460026202FFE
:10036000A4BF5E464FF0000B5BEA060C08BF4FF0DF
:10037000010B19EB0B0948EB0608ABFB027C06FBF3
:1003800002CC0BFB03CCC01B71EB0C01C1E70B468D
:10039000024641464846BDE8F08B13B5084318BFF6
:1003A0004FF0FF300146AFF30080BDE81C407047BE
:1003B0000FB41CB5074B06AA7B446946009005980C
:1003C00000F021F90020694600F030F91CBC5DF80E
:1003D00014FB0000710200002DE9F0410E460446B6
:1003E000002020622046E168884730B3252805D0E8
:1003F000D4E901219047206A401CF2E7E1682046D9
:1004000000278847050018D0A5F14100192802D817
:1004100020354FF400673246294620462760FFF713
:1004200015FF40B1012804D0F61D26F00706083656
:10043000D8E7361DD6E72846DAE7206ABDE8F0811E
:100440002DE9F0410646002410687529314616A5AD
:1004500010D0AFF30080002802DA404213A507E075
:1004600031688A0701D512A502E0490704D511A514
:10047000012401E0AFF3008000210A2206F12407E5
:1004800009E0B0FBF2FCB0FBF2F302FB1C003030E1
:1004900078541846491C0028F3D123462A46304692
:1004A000BDE8F04100F051B8000000002D00000050
:1004B0002B0000002000000010B5431C02E010F8E3
:1004C000011B71B18107FAD14FF0013202C88C1AB9
:1004D0008C4314EAC211F9D0C01A0A0603D0C01E18
:1004E00010BDC01A10BD0A0401D0801E10BD090243
:1004F000FCD0401E10BD4FF0000200B513469446DC
:100500009646203922BFA0E80C50A0E80C50B1F16B
:100510002001BFF4F7AF090728BFA0E80C5048BF7F
:100520000CC05DF804EB890028BF40F8042B08BF1D
:10053000704748BF20F8022B11F0804F18BF00F819
:10054000012B70477047704770472DE9F0470D4603
:1005500099469246044600F124080168880604D5AD
:10056000E06921F01001216000E00120A84201DDD6
:10057000471B00E00027A1697A1902EB0900081A5D
:10058000A0612078C00602D42046AFF30080002688
:1005900008E0D4E901211AF806009047206A401CBF
:1005A000761C20624E45F4DB2078C0060AD5204632
:1005B000AFF3008006E0D4E9012130209047206AA3
:1005C000401C2062381EA7F10107F4DC07E0D4E9E3
:1005D000012118F805009047206A401C2062281E5F
:1005E000A5F10105F3DC2046AFF30080207800067A
:1005F00002D50220BDE8F0870120FBE701694A1C13
:1006000002610878704700B58FB0CDE90131002153
:10061000059105497944CDE9031011466846FFF775
:10062000DBFE0FB000BD0000E5FFFFFF0A6802F827
:10063000010B0A607047754600F02CF8AE460500C5
:100640006946534620F00700854618B020B5FFF7ED
:1006500025FEBDE820404FF000064FF000074FF0A8
:1006600000084FF0000BAC46ACE8C009ACE8C0098C
:10067000ACE8C009ACE8C00921F007018D4670471D
:1006800010B50446AFF300802046BDE81040FFF7E8
:10069000F1BD0000004870472000002001491820EB
:1006A000ABBEFEE72600020070470000FEE7000038
:1006B00070470000EFF3108072B600BFFEE7000045
:1006C00080B5014690F82500022825D10868D1E9B7
:1006D00010CE8A6C036823F00E030360136823F4C2
:1006E00080731360026822F0010202600EF01F00A6
:1006F000012202FA00F0CCF80400D1E91320506086
:10070000486D68B1026822F480720260D1E9160275
:100710004260002005E000BF0420C863012000E023
:100720000020012281F82520002281F8242080BDAC
:1007300080B590F8251002292ED10168D0E910CE9D
:10074000826C0B6823F00E030B600B6823F001032F
:100750000B60116821F4807111600EF01F020121FD
:1007600001FA02F2CCF80420D0E913325A60426D4B
:1007700032B1136823F480731360D0E916235360F9
:1007800080F82510826B002180F824100AB1904770
:100790000021084680BD00BF0421C1630121002261
:1007A00080F8251080F82420084680BDB0B50446A6
:1007B00000F0F2F8054640F21000C2F20000406876
:1007C000611C18BF044400BF00F0E6F8401BA042C3
:1007D000FAD3B0BD2DE9F04F82B00D68002D00F0C6
:1007E000CB8041F2004400F13847C4F600040622F1
:1007F0004FEAB726A04208BF0522052E38BF4FEAB0
:10080000B722002401274FF0000E0026009209E0D5
:100810000D68013635FA06F20EF1040E04F10204F9
:1008200000F0AA8007FA06FB15EA0B08F0D0D1F811
:1008300004A003220AF0030CACF10105A240012D33
:100840006FEA020910D88268CD6802EA0902A54061
:100850002A4382604268CAF3001522EA0B02B540BF
:100860002A43426006E000BFBCF1030F02D14FF003
:10087000030C21E0C2688D6802EA0902A5402A4300
:10088000BCF1020FC26017D16FF0030202EA5602F8
:1008900002440EF01C030F25D2F820C005FA03FA1B
:1008A0000D692CEA0A0C05FA03F343EA0C03136200
:1008B000D1F804A00AF0030C02680CFA04F302EA6F
:1008C00009021A431AF4403F0260A1D041F26003CA
:1008D000C4F202031A6840F2004942F001021A60B1
:1008E0001A68C4F2010902F001020192019A26F08D
:1008F00003024FF6084A4A44CFF6FF7A52F80AC07C
:100900000EF00C050F23009FAB402CEA030307FAFF
:1009100005F52B4342F80A30D9F808C04B684CEA79
:100920000805DA0258BF2CEA080540F20C4CC9F859
:100930000850C4F2010CDCF800209F0242EA0805CE
:1009400058BF22EA0805CCF80050D9F804209D03CE
:1009500042EA080758BF22EA0807C9F80470D9F824
:100960000020DB0342EA080758BF22EA0807C9F85B
:10097000007001274CE700BF02B0BDE8F08F000017
:100980000069084018BF0120704700001823002AA2
:1009900008BF2823C150704740F22820C2F200004F
:1009A0000068704740F2100040F22821C2F20000B7
:1009B000C2F2000140680A681044086070470000F5
:1009C00080B5032000F08CF80F2000F009F8002813
:1009D0001CBF012080BD00F029F8002080BD000070
:1009E00070B540F21006C2F200067168E1B104462B
:1009F00040F21C00C2F200004FF47A720068B2FBB1
:100A0000F1F1B0FBF1F000F09DFE0F2C4FF001056D
:100A100008D838B94FF0FF3021460022002500F0F9
:100A200033F83460284670BD012070BD82B041F2B9
:100A30005800C4F20200816841F0010181608168C0
:100A400001F0010101910199016841F080510160BB
:100A5000006800F080500090009802B000F0E4B808
:100A6000002848BF7047C1B200F01F00012202FAFF
:100A700000F04EF20012CEF2000242EAD10121F063
:100A8000030108607047000010B54EF60C5CCEF212
:100A9000000CDCF80030C3F3022E8EF00704042CA7
:100AA00028BF0424BEF103034FF0FF3E0EFA04F406
:100AB00038BF0023A14399400EFA03F39A43114330
:100AC00000F00F0200F160430901043A03F56443AA
:100AD0006244002848BF02F10C03197010BD0000E9
:100AE0004EF60C51CEF200010A684FF6FF031A4091
:100AF00060F30A2242F0806040F0FD7008607047A9
:100B0000B0F5007F42D0002840F0808047F214000A
:100B1000C4F2000050F8141CC26E01F4C06122F44B
:100B20008072B1F5806FC2662ED150F8141C01227C
:100B300062F34A2140F8141C40F21C01C2F2000189
:100B40000968322251434DF68362C4F21B32A1FB85
:100B50000212910C0268520511D54A1C0FD002688E
:100B600052050CD559B10268520508D5012906D0A5
:100B70000268520503D50229A1F10401EAD10068F7
:100B8000400544BF032070470020704747F214001F
:100B9000C4F2000050F8141CC26E01F4C06142F4AB
:100BA0008072B1F5806FC266EED150F8141C01223C
:100BB00062F34A2140F8141C40F21C01C2F2000109
:100BC0000968322251434DF68362C4F21B32A1FB05
:100BD0000212910C0268520511D54A1C0FD002680E
:100BE00052050CD559B10268520508D5012906D025
:100BF0000268520503D50229A1F10401EAD1006877
:100C0000400544BF03207047BEE700BF47F2140011
:100C1000C4F2000050F8141C022262F34A2140F88A
:100C2000141C00207047000047F20800C4F20000C6
:100C3000016841F480410160704700002DE9F041F6
:100C400082B00446807841F288060007C4F20206AA
:100C500002D400202FE000BF56F8300C10F080586E
:100C60000BD156F8300C40F0805046F8300C56F856
:100C7000300C00F080500190019847F20007C4F258
:100C80000007386840F480703860FFF785FE05463D
:100C90003868C00500F1D680FFF77EFE401B0228B1
:100CA000F6D90320B8F1000F05D156F8301C21F019
:100CB000805146F8301C2168CA0713D18A0719D41D
:100CC0004A071FD40A0725D48A062BD44A0631D4F2
:100CD0000A0637D4CA053DD48A0543D44A0549D407
:100CE00057E000BF3268636822F003021A433260A3
:100CF0008A07E5D53268A36822F00C021A433260F5
:100D00004A07DFD53268E36822F030021A433260C6
:100D10000A07D9D53268236922F0C0021A4332602B
:100D20008A06D3D53268636922F440621A4332607E
:100D30004A06CDD53268A36922F440521A43326084
:100D40000A06C7D53268E36922F440421A4332608A
:100D5000CA05C1D53268236A22F440321A43326090
:100D60008A05BBD53268636A22F440221A43326096
:100D70004A050ED53268A36A22F440121A43B3F52D
:100D8000801F326005D156F87C2C42F4801246F860
:100D90007C2C0A050ED53268E36A22F440021A431D
:100DA000B3F5800F326005D156F87C2C42F48012E6
:100DB00046F87C2CCA040ED53268236B22F04072B0
:100DC0001A43B3F1807F326005D156F87C2C42F48F
:100DD000801246F87C2C8A040ED53268636B22F0B0
:100DE00040621A43B3F1006F326005D156F87C2C93
:100DF00042F4801246F87C2C4A040ED53268A36B6C
:100E000022F040621A43B3F1006F326005D156F808
:100E10007C2C42F4801246F87C2C09040ED53168F3
:100E2000E26B21F040511143B2F1805F316005D196
:100E300056F87C1C41F4803146F87C1C02B0BDE8B9
:100E4000F08100BFB06810F4407010D0216C88426F
:100E50000BD0B068B16820F4407041F48031B160CB
:100E6000B16821F48031B160B060C0070CD1B068C6
:100E7000216C20F440700843B0600020B8F1000FEE
:100E80007FF419AF11E700BFFFF786FD054641F279
:100E9000883700BFB0688007E9D4FFF77DFD401BAD
:100EA000B842F7D9FDE600002DE9F04700286DD0E3
:100EB00042F2000AC4F2020A0446DAF800000D46C3
:100EC00000F00F0088420CD2DAF8000020F00F008A
:100ED0002843CAF80000DAF8000000F00F00A8422A
:100EE00054D1216841F20808C807C4F2020803D1AE
:100EF000880740F1D880BDE0606802283AD0032816
:100F000040D158F8082C920140D5D8F80420D8F8E0
:100F1000043042F20046C3F3031302F00302D8F890
:100F200004700133C0F2F406032A04BF43F20066E2
:100F3000C0F26E16B6FBF3F2D8F80430C7F30627FA
:100F40007A43C3F34163022707EB4303B2FBF3F297
:100F50004BF20043C0F2C4439A4261D9D8F8002052
:100F600012F0F00F51D089075AD5A168002957D146
:100F70004BE000BF58F8081C89035CBF0120BDE8A6
:100F8000F08707E058F8081C490503D40120BDE8A4
:100F9000F08700BFD8F8001001F00C0104293FD001
:100FA000D8F8001001F00C01082939D0D8F8001049
:100FB00001F00C010C2933D1D8F80410D8F8042022
:100FC00042F20047C2F3031201F00301D8F80430E3
:100FD0000132C0F2F407032904BF43F20067C0F2F4
:100FE0006E17B7FBF2F1D8F80420C3F30623594378
:100FF000C2F34162022303EB4202B1FBF2F14BF276
:101000000042C0F2C44291420AD9D8F80010082226
:1010100062F307114FF00109C8F8001002E000BFA9
:101020004FF00009D8F8001021F003010843C8F878
:101030000000FFF7B1FC064641F28837D8F80000FF
:10104000616800F00C00B0EB810F07D0FFF7A4FC43
:10105000801BB842F2D90320BDE8F08721688807D9
:1010600008D4B9F1000F1ED0D8F8000020F0F0002D
:1010700017E000BF480705D5D8F8000040F4E0604D
:10108000C8F80000080706D5D8F80000072262F368
:101090000D20C8F80000D8F80000A26820F0F00089
:1010A0001043C8F80000DAF8000000F00F00A84272
:1010B0001BD9DAF8000020F00F002843CAF800001E
:1010C000FFF76AFC064641F2883700BFDAF80000F5
:1010D00000F00F00A84207D0FFF75EFC801BB8426B
:1010E000F4D90320BDE8F0872168480707D5D8F870
:1010F0000000E26820F4E0601043C8F80000080730
:1011000008D5D8F80000216920F4605040EAC100F9
:10111000C8F80000D8F8000042F20041C0F2F40123
:1011200000F00C00042808462DD0D8F8000000F08C
:101130000C00082843F20060C0F26E1023D0D8F8EB
:10114000002002F00C020C2A1CD1D8F80420D8F898
:10115000043002F00302C3F30313D8F80470013320
:10116000032A08BF0146B1FBF3F0D8F80410C7F317
:101170000627C1F341610222784302EB4101B0FB33
:10118000F1F000E00020D8F8001047F2AE22C1F3E1
:101190000311C0F60002515C40F21C0201F01F0175
:1011A00020FA01F140F21000C2F200000068C2F221
:1011B00000021160BDE8F047FFF712BC40F21C00CE
:1011C00041F20801C2F20000C4F20201006809689D
:1011D00047F2BE22C1F30221C0F60002515C01F0C9
:1011E0001F01C8407047000040F21C0041F2080196
:1011F000C2F20000C4F202010068096847F2BE2290
:10120000C1F3C221C0F60002515C01F01F01C840C9
:101210007047000080B541F20C01C4F2020151F8A0
:10122000040C42F20042C0F2F40200F00C00042868
:10123000104608BF80BD51F8040C00F00C000828CF
:1012400043F20060C0F26E1022D051F8043C03F06B
:101250000C030C2B1CBF002080BDD1F800C00B6814
:101260000CF0030CC3F3031E0B680EF1010EBCF16E
:10127000030F08BF02460968B2FBFEF0C3F3062362
:10128000C1F341610222584302EB4101B0FBF1F08E
:1012900080BD00002DE9F04182B0002800F00681F9
:1012A0000446007841F20006C007C4F2020655D198
:1012B0002078800774D42078000700F19780207888
:1012C000400700F1B7802078800600F10781E069CF
:1012D000002840D0B16801F00C010C2940F0568183
:1012E000012800F0E380F068216A00F003028A42DE
:1012F00040F0DC80626A6FF00F0300F0F00103EB56
:101300000212914240F0D280A16A00F4FE42B2EB98
:10131000012F40F0CB80E16A00F07842B2EBC16F60
:1013200040F0C480226B0023CFF6E07303EA025240
:1013300000F4C001A2F50012914240F0B780616B49
:101340004FF07E4202EA016100F0C06001F17E418F
:10135000884240F0AB800020F1E100BFB06800F0AF
:101360000C01F06808295BD0032281F00C0122EA0D
:1013700000000844B0FA80F0400951D16068B0F52F
:10138000803F07D0B0F5A02F40F0D680306840F401
:1013900080203060306840F480303060D7E000BF9B
:1013A000B068F16800F00C00042869D001F0030176
:1013B00080F00C0081F002010844B0FA80F040098E
:1013C0005ED1E1683068002900F0CE8040F4807082
:1013D0003060FFF7E1FA05463068400500F1EC8027
:1013E000FFF7DAFA401B0228F6D920E16169D6F846
:1013F0009400002900F08C8040F00100C6F89400B1
:10140000FFF7CAFA054600BFD6F8940080073FF5FB
:1014100056AFFFF7C1FA401B0228F5D907E100BF1C
:10142000306880037FF544AF606800287FF440AFE8
:101430003CE000BFB06D10F0805808D1B06D40F0B6
:101440008050B065B06D00F080500190019847F277
:101450000007C4F200073868C0052BD4386840F490
:1014600080703860FFF798FA054600BF3868C005FD
:1014700020D4FFF791FA401B0228F7D9D7E000BF2C
:101480003068400501D5E06880B17068216920F0BE
:10149000FE4040EA0160706040F21000C2F20000BD
:1014A0000068FFF79DFA00283FF405AF012002B065
:1014B000BDE8F081A068012808D0052840F09A8096
:1014C000D6F8900040F00400C6F89000D6F89000DE
:1014D00040F00100C6F890009AE000BFA169D6F87C
:1014E0009800002970D040F00100C6F89800FFF77E
:1014F00053FA0546D6F8980080073FF5E8AEFFF7A7
:101500004BFA401B02284FF00300F3D917E100BF4C
:1015100020F00100C6F89400FFF73EFA054600BF30
:10152000D6F8940080077FF5CAAEFFF735FA401B66
:101530000228F5D97BE000BF3168002821F4803112
:101540003160316821F48021316000F08F80FFF735
:1015500023FA0546306880033FF5AAAEFFF71CFA70
:10156000401B6428F6D962E020F480703060FFF7F9
:1015700013FA0546306840057FF59DAEFFF70CFA7B
:10158000401B02284FF00300F4D9D8E0316802284C
:1015900021F0807131604FD1FFF7FEF9054600BFA1
:1015A0003068800140F18E80FFF7F6F9401B022879
:1015B0004FF00300F4D9C2E07068216920F0FE40CA
:1015C00040EA0160706076E620F00100C6F89800FD
:1015D000FFF7E2F9054600BFD6F8980080077FF5CF
:1015E00076AEFFF7D9F9401B02284FF00300F3D97C
:1015F000A5E000BFD6F89010002821F00101C6F840
:101600009010D6F8901021F00401C6F890103DD04B
:10161000FFF7C2F9054641F2883700BFD6F89000BF
:10162000800745D4FFF7B8F9401BB842F6D903202C
:1016300002B0BDE8F08100BFF0684FF6FF7120F006
:101640000300F060F068CFF6EE610840F060FFF74D
:10165000A3F90446306880017FF57DAEFFF79CF961
:10166000001B02284FF00300F4D968E0FFF794F95B
:10167000054600BF306880037FF51AAEFFF78CF98E
:10168000401B64284FF00300F4D958E0FFF784F9B9
:10169000054641F2883700BFD6F89000800707D58D
:1016A000FFF77AF9401BB8424FF00300F4D946E047
:1016B000B8F1000F7FF407AEB06D20F08050B06538
:1016C00001E600BFF06848F20C01C0F29F1104F17E
:1016D000200700EA010C8ECF6FF00F00D4E90C5404
:1016E00000EB02100022CFF6E07241EA0C0102EAA0
:1016F00005520843A2F500124FF07E4540EA032050
:1017000005EA0465104305F17E4540EAC7602843B9
:10171000F060306840F080703060F06840F08070B9
:10172000F060FFF739F90446306880013FF513AEE9
:10173000FFF732F9001B02284FF00300F4D902B082
:10174000BDE8F081411E0020B0EB116F1CBF0120ED
:1017500070474EF21002CEF2000251604EF6235155
:10176000CEF20001F0230B700721906011607047EA
:10177000704700007047000070470000F0B590F817
:101780003C20012A04BF0220F0BDD1E90232D1E998
:1017900000CE22F47C5223F470531A4348F2FF73B4
:1017A000CFF6F07303EA0E0342EA030E0A692CF443
:1017B00077234EEA030C22F476224B6942EA0C02AC
:1017C0001A430B6B22F4742C23F470238A6943EAC6
:1017D0000C0343EA0243026843F2004EC4F2010ED6
:1017E00042F6004C7245C4F2010C01D0624503D1AF
:1017F000CC6923F080532343724501D0624517D151
:1018000001F12006002770CECFF6F04723F07C735D
:1018100007EA0656334324F000742343724543EA33
:10182000050301D0624503D1C96A23F000530B437D
:101830000021536480F83C100846F0BD704700005A
:10184000704700007047000070B590F83C20012AF6
:101850004FF0020247D080F83D20026843F2004C6E
:1018600054689368C4F2010C42F6004E6245C4F21B
:10187000010E01D0724503D14D6824F470042C434D
:101880004FF68F75CFF6FF550E682C4042F6FF35A8
:10189000C4F201053443AA4254600FDCB2F1804F18
:1018A00016D040F20046C4F20006B24210D040F614
:1018B0000006C4F20006B2420AD00EE0724507D01C
:1018C00044F20006C4F20106B24201D0624504D1DE
:1018D000896823F08003194391600121002280F878
:1018E0003D1080F83C20104670BD0000704700009D
:1018F000002804BF0120704710B5044690F83D0051
:1019000028B9002084F83C00204600F023F802208B
:1019100084F83D002068211D04F0FEF9012084F8C0
:10192000480084F83E0084F83F0084F8400084F8C2
:10193000410084F8420084F8430084F8440084F8AD
:10194000450084F8460084F8470084F83D000020F4
:1019500010BD000010B584B0006844F60001C4F268
:10196000010188421AD040F20041C4F200018842CD
:1019700024D0B0F1804F1CBF04B010BD41F258001C
:10198000C4F2020001681C2441F0010101600068FA
:1019900000F00100039003981EE000BF41F25800E0
:1019A000C4F2020081681A2441F4802181608068B9
:1019B00000F48020019001980EE000BF41F2580031
:1019C000C4F2020001681D2441F0020101600068B8
:1019D00000F0020002900298204600210022FFF74A
:1019E00053F8204604B0BDE81040FFF739B80000B6
:1019F00090F83D1001291CBF01207047022180F89A
:101A00003D10016842F6FF32C868C4F201029142FB
:101A100040F00100C8600FDCB1F1804F1ED040F2F1
:101A20000040C4F20000814218D040F60000C4F229
:101A30000000814212D01EE042F60040C4F20100D4
:101A400081420BD044F20000C4F20100814205D073
:101A500043F20040C4F2010081420CD188680722A1
:101A6000C0F201020240062A4FF0000008D0B2F591
:101A7000803F08BF7047086840F001000860002000
:101A80007047000080B590F83C20012A4FF0020218
:101A900000F0A98080F83D20D0F800C08822DCF852
:101AA0000830CFF6CE721A40CCF808200B686F2BA6
:101AB00010DD1F22C0F21002934237DCB3F5005F45
:101AC00046DA702B00F09280B3F5805F00F08480DE
:101AD000D6E000BF2F2B35DD4F2B3FDC302B6FD0F6
:101AE000402B40F0CD80D1F804E0C968DCF820300C
:101AF000DCF8202022F00102CCF82020DCF81820AD
:101B000022F0F00242EA011123F00A0242EA0E0238
:101B1000CCF81810CCF82020DCF808104FF68872AA
:101B2000CFF6CF721140473154E000BF3F21C0F2E1
:101B300010018B423ADC2021C0F210018B423FD0D1
:101B4000302139E0E3B3102B3AD0202B38D097E086
:101B500060D0B3F1101F33D092E000BF502B6DD096
:101B6000602B40F08D80D1F804E0C968DCF82030AB
:101B700023F01003CCF82030DCF81830DCF82020FB
:101B800023F4704322F0A00243EA013142EA0E122C
:101B9000CCF81810CCF82020DCF808104FF688722A
:101BA000CFF6CF721140673114E000BF4021C0F280
:101BB00010018B4204D07021C0F210018B425FD122
:101BC000DCF808104FF68872CFF6CF721140194337
:101BD00041F00701CCF808100022012180F83D10E7
:101BE000002180F83C10104680BD00BFD1E901E320
:101BF000C968DCF8082043EA0E0322F47F4243EA76
:101C000001211143CCF80810DCF8081041F07701ED
:101C1000E0E700BFD1E901E3C968DCF8082043EA46
:101C20000E0322F47F4243EA01211143CCF808104D
:101C3000DCF8081041F48041CCE700BFD1F804E0A3
:101C4000C968DCF82030DCF8202022F00102CCF852
:101C50002020DCF8182022F0F00242EA011123F0E3
:101C60000A0242EA0E02CCF81810CCF82020DCF868
:101C700008104FF68872CFF6CF7211405731A9E79E
:101C80000122AAE77047000010B501680446086900
:101C9000800744BFC8685FEA807061D40869400764
:101CA00044BFC8685FEA407066D40869000744BF53
:101CB000C8685FEA00706DD40869C00644BFC86890
:101CC0005FEAC06072D40869C0071CBFC8685FEAD9
:101CD000C07079D10869000644BFC8685FEA006037
:101CE0007AD40869C00544BFC8685FEA006000F1A3
:101CF0007B800869400644BFC8685FEA406000F125
:101D00007B800869800644BFC8685FEA806000F194
:101D10007B800869C00244BFC8685FEAC02000F148
:101D20007B800869800244BFC8685FEA802000F1B8
:101D30007B800869400244BFC8685FEA402000F128
:101D40007B800869000246BFC8685FEA002010BDBA
:101D50006FF4000220460A61BDE81040FFF7C6BDDF
:101D60006FF00200086101202077886980076BD03E
:101D70002046FFF787FF6DE06FF004000861022046
:101D80002077886910F4407F68D02046FFF77AFFFB
:101D90006AE000BF6FF00800086104202077C8697E
:101DA000800765D02046FFF76DFF67E06FF01000F9
:101DB000086108202077C86910F4407F62D020466F
:101DC000FFF760FF64E000BF6FF00100086120468C
:101DD00000F046FB21687DE76FF080000861204637
:101DE000FFF7C8FC21687CE76FF48070086120462B
:101DF000FFF7BEFC21687CE76FF0400008612046D9
:101E000000F0ACFB21687CE76FF020000861204601
:101E1000FFF7B2FC21687CE76FF480100861204670
:101E2000FFF70EFD21687CE76FF400100861204683
:101E3000FFF704FD21687CE76FF48000086120460D
:101E4000FFF700FD21687CE7204600F025F82046DA
:101E500000F040FA2168002020771FE7204600F0BC
:101E60001BF8204600F036FA2168002020771CE796
:101E7000204600F011F8204600F02CFA21680020DE
:101E8000207719E7204600F007F8204600F022FAF4
:101E900021680020207716E7704700002DE9F04107
:101EA00090F83C30012B04BF0220BDE8F0814FEADE
:101EB000B202052A00F28A81DFE812F00600500023
:101EC000A400F8004C01900103681A6AA3F180464F
:101ED00022F001021A621D6A1A465C6852F818CF95
:101EE0008F68A6F59636D1F800E025F002054FEA96
:101EF000B626072E45EA07050AD80127B74017F08E
:101F0000E50F1FBFCF6825F00C0527F004073D4300
:101F1000072E0BD8012707FA06F616F0E50F1FBFAC
:101F200024F44074D1E9056734433C434FF68C7682
:101F3000CFF6FE760CEA060747EA0E075C609F6163
:101F40004F6809695F631D629F6947F008079F61D9
:101F50009F6927F004079F617DE100BF036843F29A
:101F600000461A6AC4F2010622F010021A621D6AC3
:101F70001A46D3F804C052F8188FB3428E68D1F8CD
:101F800000E025F0200545EA061505D042F600469A
:101F9000C4F20106B34207D1CE686FF0400725F0C6
:101FA000C00507EA06163543A3F18046A6F5963626
:101FB0004FEAB626072E0CD8012707FA06F616F0C8
:101FC000E50F1FBFD1E905672CF44064374344EAAD
:101FD000870C48F6FF44CFF6FF6404EA080444EA9D
:101FE0000E27C3F804C09F614F6809699F631D6293
:101FF0009F6947F400679F619F6927F480679F612D
:1020000028E100BF036843F200461A6AC4F20106E1
:1020100022F480721A621D6A1A46D3F804C052F87C
:102020001CEFB3428E68D1F8008025F4007545EAB4
:10203000062505D042F60046C4F20106B34207D198
:10204000CE6840F2FF47360225F44065BE43354373
:10205000A3F18046A6F596364FEAB626072E0CD891
:10206000012707FA06F616F0E50F1FBFD1E905674D
:102070002CF44054374344EA071C4FF68C74CFF6D7
:10208000FE740EEA040747EA0807C3F804C0DF61DC
:102090004F680969DF631D62DF6947F00807DF6188
:1020A000DF6927F00407DF61D5E000BF036843F272
:1020B00000461A6AC4F2010622F480521A621D6AAE
:1020C0001A46D3F804C052F81C8FB3428E68D1F878
:1020D00000E025F4005545EA063505D042F60046F5
:1020E000C4F20106B34207D1CE6844F6FF77360347
:1020F00025F44045BE433543A3F18046A6F5963608
:102100004FEAB626072E0CD8012707FA06F616F076
:10211000E50F1FBFD1E905672CF44044374344EA7B
:10212000871C48F6FF44CFF6FF6404EA080444EA3B
:102130000E27C3F804C0DF614F6809691F641D6280
:10214000DF6947F40067DF61DF6927F48067DF61DB
:1021500080E000BF03681A6AA3F1804722F480324E
:102160001A621A46A7F59637D3F820805D6852F8B0
:1021700050EFD1F800C08E684FEAB727072F09D873
:102180000124BC4014F0E50F1EBF4C6925F48035D6
:1021900045EA042528F4003444EA06444FF68C76D8
:1021A000CFF6FE7603360EEA060747EA0C075D60B7
:1021B0001F654F6809699F641C621F6D47F008071F
:1021C0001F651F6D27F004071F6544E001210022F1
:1021D00080F83C200846BDE8F08100BF03681A6A19
:1021E000A3F1804722F480121A621A46A7F59637A7
:1021F000D3F820805D6852F850EFD1F800C08E68A7
:102200004FEAB727072F09D80124BC4014F0E50F87
:102210001EBF4C6925F4802545EA842528F4001466
:1022200044EA065448F6FF46CFF6FF6606F54076C8
:102230000EEA060747EA0C275D601F654F680969CB
:10224000DF641C621F6D47F400671F651F6D27F474
:1022500080671F650902136819431160002100227D
:1022600080F83C200846BDE8F0810000002804BF4B
:102270000120704710B5044690F83D0028B90020B1
:1022800084F83C00204600F023F8022084F83D004A
:102290002068211D03F040FD012084F8480084F8E7
:1022A0003E0084F83F0084F8400084F8410084F840
:1022B000420084F8430084F8440084F8450084F820
:1022C000460084F8470084F83D00002010BD00005F
:1022D000704700007047000061B10A1F4FEAB20268
:1022E000032A11D8DFE802F00214181C00F13F03A2
:1022F00018E000BF90F83E20012A1CBF0120704763
:10230000022280F83E202CE000F143030AE000BFE7
:1023100000F1400306E000BF00F1410302E000BF0E
:1023200000F142031B78012B1CBF01207047032AD8
:1023300008D8DFE802F0030B0F1300BF022280F879
:102340003F200EE0022280F843200AE0022280F8BB
:10235000402006E0022280F8412002E0022280F8BC
:102360004220026801F01F010120136A00FA01F106
:102370008B431362136A0B43A2F18041A1F596319E
:102380004FEAB1210629136244D8884010F0650F46
:1023900040D0506C42F6FF31C4F2010140F40040DD
:1023A0008A42506410DCB2F1804F1FD040F20040EE
:1023B000C4F20000824219D040F60000C4F20000CE
:1023C000824213D01FE000BF42F60040C4F2010079
:1023D00082420BD044F20000C4F20100824205D0D8
:1023E00043F20040C4F2010082420CD19068072100
:1023F000C0F20101014006294FF0000008D0B1F5FC
:10240000803F08BF7047106840F001001060002056
:10241000704700BF42F6FF30C4F201008242C2DDC5
:1024200043F6FF70C4F20100824207DC42F600402E
:10243000C4F201008242D3D1D8E700BF44F20000C9
:10244000C4F201008242D1D044F60000C4F201007F
:10245000824202BF506C40F400405064D3E7000059
:10246000B0B540F20044C4F60004006804F17841BD
:10247000884218BFB0BD20460121FEF781FA40F224
:102480001C25002818BF0120C2F200052870204634
:102490000221FEF775FA002818BF0120E8702046D7
:1024A0000421FEF76DFA002818BF0120A8714FF033
:1024B00090400121FEF764FA29780028024618BFEF
:1024C0000122002969786A7204D0472904D30221C5
:1024D00005E000BF013104E0032901D30121A97007
:1024E0000021EB782A79697023B1462A04D90221A8
:1024F00005E000BF511C04E0032A01D301216971EA
:102500000021AB79EA79297123B1462A0AD902213F
:102510000BE000BF511CAA7AE97160B9501CA87287
:10252000B0BD00BF032A01D3012129720021AA7A7C
:102530000028E971F2D0462A04D90220E87200206E
:10254000A872B0BD032A05D30120E8720020A8724A
:10255000B0BD00BF0020A872B0BD000070470000F1
:1025600090F88010012904BF022070472421C0F890
:10257000841002681168136823F00103136021F0CE
:1025800000530021416613602022C0F8842080F8A7
:102590008010084670470000704700007047000038
:1025A000B0B590F88020012A04BF0220B0BD2422DB
:1025B000C0F884200268D0F864E0D2F800C0136844
:1025C000BEF1000F23F001031360936823F06063F2
:1025D00041EA0301916019D09368916848F2C04EB6
:1025E000490FC0F6000E48F2C8451EF80140C0F67B
:1025F0000005695CC3F34263E400B4FBF1F11EF82B
:102600000340EB5CE500B5FBF3F301E0012101239E
:10261000A0F86A102021A0F86830C2F800C0C0F805
:102620008410002180F880100846B0BDB0B590F845
:102630008020012A04BF0220B0BD2422C0F88420DB
:102640000268D0F864E0D2F800C01368BEF1000F51
:1026500023F001031360936823F0604341EA030110
:10266000916019D09368916848F2C04E490FC0F646
:10267000000E48F2C8451EF80140C0F60005695C2E
:10268000C3F34263E400B4FBF1F11EF80340EB5CDA
:10269000E500B5FBF3F301E001210123A0F86A1086
:1026A0002021A0F86830C2F800C0C0F884100021D2
:1026B00080F880100846B0BD7047000070470000E9
:1026C0007047000070B5016840F62F03CA690446E0
:1026D00008688E681340202B0CD100F0200306F010
:1026E00080555B1917D0216F00297BD02046BDE8AB
:1026F0007040084740F60F031A420CD00123C1F284
:10270000000306EA030C40F22013C0F2004303402A
:1027100013EB0C0368D1E36E012B05D112F010030B
:1027200018BF10F010034DD1D3020BD516F480035F
:1027300008D04FF4801220460A62BDE87040FFF7CF
:10274000BDBF00BF110606D500F0800106F40003EE
:10275000C91840F02B82510640F1068110F040016B
:1027600000F00281206850E8000F216820F040004E
:1027700041E80002DAB1206850E8000F216820F03B
:10278000400041E8000292B1206850E8000F216843
:1027900020F0400041E800024AB1206850E8000FF4
:1027A000216820F0400041E80002002ADAD1202010
:1027B0000021C4F8840020466167BDE8704000F045
:1027C00025BC00BF102008628868400618D4B4F801
:1027D0005C00B4F85E10B4F85E20002A18BF88428E
:1027E00040F0FC8170BD00BFD30718BF10F48073A8
:1027F00040F0C680930706F0010E00F1CD80D6E0D0
:10280000E06F01684A6893B2002BEBD0B4F85C002B
:102810008342E7D2A4F85E200968890600F1A0800F
:10282000206850E8000F216820F4807041E8000221
:10283000DAB1206850E8000F216820F4807041E888
:10284000000292B1206850E8000F216820F48070E7
:1028500041E800024AB1206850E8000F216820F4E6
:10286000807041E80002002ADAD1206850E8020FA7
:10287000216820F0010041E80202C2B3206850E85C
:10288000020F216820F0010041E802027AB32068BB
:1028900050E8020F216820F0010041E8020232B343
:1028A000206850E8020F216820F0010041E8020290
:1028B000002ADAD11BE000BF206850E8020F21682F
:1028C00020F0400041E80202DAB1206850E8020F2F
:1028D000216820F0400041E8020292B1206850E8EF
:1028E000020F216820F0400041E802024AB120684E
:1028F00050E8020F216820F0400041E80202002A5F
:10290000DAD12020C4F888000020E066206850E872
:10291000000F216820F0100041E80002DAB12068C1
:1029200050E8000F216820F0100041E8000292B149
:10293000206850E8000F216820F0100041E80002F4
:102940004AB1206850E8000F216820F0100041E8EB
:102950000002002ADAD1E06FFDF7B2FEB4F85C00A5
:10296000B4F85E10401AB2E1110240F1258110F076
:10297000804100F021812046BDE87040FFF79CBEF9
:1029800001230B62D4F88C3043F00103C4F88C307F
:10299000930706F0010E0AD5BEF1000F07D00223FF
:1029A0000B62D4F88C3043F00403C4F88C30530726
:1029B0000AD5BEF1000F07D004230B62D4F88C3087
:1029C00043F00203C4F88C3013070CD500F0200349
:1029D00053EA0C0307D008230B62D4F88C3043F081
:1029E0000803C4F88C3013050BD510F0806308D0B1
:1029F0004FF400630B62D4F88C3043F02003C4F82A
:102A00008C30D4F88C30002B3FF4ECAE12F0200266
:102A10001EBF00F0200006F0805210EB020040F0D4
:102A20005D81D4F88C00896800F0280001F0400135
:102A3000401807D12046FFF743FE0020C4F88C0061
:102A400070BD00BF206850E8000F216820F490702E
:102A500041E80002DAB1206850E8000F216820F454
:102A6000907041E8000292B1206850E8000F2168A0
:102A700020F4907041E800024AB1206850E8000F4D
:102A8000216820F4907041E80002002ADAD14FF664
:102A9000FE70CEF6FF7000BF216851E8021F226869
:102AA000014042E80213C3B1216851E8021F2268C5
:102AB000014042E8021383B1216851E8021F2268F5
:102AC000014042E8021343B1216851E8021F226825
:102AD000014042E80213002BDED1E06E012824D130
:102AE000206850E8000F216820F0100041E8000243
:102AF000DAB1206850E8000F216820F0100041E8AA
:102B0000000292B1206850E8000F216820F0100008
:102B100041E800024AB1206850E8000F216820F027
:102B2000100041E80002002ADAD12020C4F8880011
:102B30000020E066216820678868400648D500BF0D
:102B4000206850E8020F216820F0400041E80202AE
:102B5000DAB1206850E8020F216820F0400041E817
:102B6000020292B1206850E8020F216820F0400074
:102B700041E802024AB1206850E8020F216820F0C3
:102B8000400041E80202002ADAD1E06F00B345F6C6
:102B90000D71C0F600018163FDF7CAFD00283FF406
:102BA00021AEE06F816BBDE870400847616F00297E
:102BB0007FF49CAD16E600BFD1017FF513AEB0F1F6
:102BC000FF3FC8BF70BD2046BDE87040FFF7E6BCC0
:102BD0002046BDE87040FFF773BD00BF401A00BF3C
:102BE000216851E8001F226821F4907142E8001327
:102BF000DBB1216851E8001F226821F4907142E89E
:102C0000001393B1216851E8001F226821F49071EC
:102C100042E800134BB1216851E8001F226821F4FB
:102C2000907142E80013002BDAD14FF6FE71CEF618
:102C3000FF7100BF226852E8022F23680A4043E870
:102C40000226C6B1226852E8022F23680A4043E8F0
:102C5000022686B1226852E8022F23680A4043E820
:102C6000022646B1226852E8022F23680A4043E850
:102C70000226002EDED12021C4F888100021E16652
:102C8000216700BF216851E8001F226821F0100170
:102C900042E80013DBB1216851E8001F226821F0EF
:102CA000100142E8001393B1216851E8001F226827
:102CB00021F0100142E800134BB1216851E8001FD8
:102CC000226821F0100142E80013002BDAD181B212
:102CD0002046BDE87040FFF75FBC00BF226F002AAE
:102CE0003FF49FAE2046904721689AE6B0B582B087
:102CF000B0B10446D0F8840028B9002084F88000E0
:102D0000204600F059F82420C4F8840020680168A7
:102D100021F001010160204603F0FCFC012803D1F1
:102D2000012002B0B0BD00BFA06A10B1204603F080
:102D300079F82068416821F490414160816821F070
:102D40002A018160016841F0010101600020C4F89E
:102D50008C00FDF721FE216805460A6812070CD594
:102D60006FF07E4C20464FF4001100222B46CDF828
:102D700000C003F063FF78B92168086840070FD5E9
:102D80006FF07E4C20464FF4800100222B46CDF898
:102D900000C003F053FF18B1032002B0B0BD00BF64
:102DA0002020C4F88400C4F888000020E06684F87D
:102DB000800002B0B0BD000010B596B00446684671
:102DC00008303C21FDF797FB206843F60001C4F270
:102DD0000101884202D016B010BD00BF0120009052
:102DE000002468460194FDF729FF002818BFFDF76D
:102DF00061FC41F24C00C4F20200416941F480419F
:102E00004161416901F4804111911199016841F0DA
:102E100001010160006811A900F0010011901198F2
:102E20004FF4C06011900220CDE9120407201590E4
:102E30004FF090401494FDF7CDFC25200021002296
:102E4000FDF722FE2520FDF70BFE16B010BD000099
:102E500080B5D0F88830202B0CD100294FF0010329
:102E600018BF002A02D1184680BD00BF90F88030FC
:102E7000012B01D1022080BD012380F88030002386
:102E8000C366D0F800C048F20003C4F200039C45BA
:102E900034D0DCF804301B0230D500BF036853E89F
:102EA00000CFD0F800E04CF080634EE8003CBCF16D
:102EB000000F23D0036853E800CFD0F800E04CF0B7
:102EC00080634EE8003CBCF1000F17D0036853E864
:102ED00000CFD0F800E04CF080634EE8003CBCF13D
:102EE000000F0BD0036853E800CFD0F800E04CF09F
:102EF00080634EE8003CBCF1000FCFD103F05CFDD5
:102F00000023184680BD000040F28001C2F200019B
:102F1000487891F800C0421C0B1840F28C104A709F
:102F2000C2F20000012283F802C0FFF791BF000047
:102F30002DE9F04182B00446D0F8840020280BD15E
:102F40000D4600294FF001005CD01746002A59D0E9
:102F500094F88000012803D1022002B0BDE8F0817E
:102F6000012084F880000020C4F88C0021209846BD
:102F7000C4F88400FDF710FDA4F85470A4F856704E
:102F8000A1680746B1F5805F01D1206910B12E46D6
:102F9000002500E00026002084F880000CE000BF3F
:102FA00035F8020B21686FF35F2088620026B4F8C1
:102FB00056000138A4F85600B4F8560080B12046F7
:102FC000802100223B46CDF8008003F037FE80B917
:102FD000002EE5D016F8010B21688862E7E700BFF4
:102FE0002046402100223B46CDF8008003F026FE1B
:102FF00020B1032002B0BDE8F08100BF2020C4F85A
:103000008400002002B0BDE8F0810000704700009D
:10301000FEE7000040F21841C4F600010A6942F4DC
:1030200000720A610A6942F480720A610A6842F019
:1030300020020A602022C1F8FC230A6942F0200223
:103040000A6100BF00BF00BF0A6842F020020A60A8
:103050000A6842F480720A600022C1F8FC230B69FE
:1030600043F020030B6100BF00BF00BF0B6843F0BB
:1030700020030B600B6843F480730B600B6943F40F
:1030800000730B610B6943F480730B610B6843F0B1
:1030900020030B602123C1F8FC330B6943F02003AC
:1030A0000B6100BF00BF00BF0B6843F020030B6043
:1030B0000B6843F480730B60C1F8FC230A6942F08B
:1030C00020020A6100BF00BF00BF0A6842F0200270
:1030D0000A600A6842F480720A600A6942F4007267
:1030E0000A610A6942F480720A610A6842F02002A9
:1030F0000A602222C1F8FC230A6942F020020A6118
:1031000000BF00BF00BF0A6842F020020A600A68E0
:1031100042F480720A6000BF00BF00BF0A6842F438
:1031200000720A604FF496320B69053A43F400735B
:103130000B610B6843F480730B600B6843F0200352
:103140000B60C1F8FC030B6943F020030B6100BF67
:1031500000BF00BF0B6843F020030B600B6843F413
:1031600080730B6000BF00BF00BF0B6843F40073A7
:103170000B600B6943F400730B610B6843F48073BD
:103180000B600B6843F020030B60C1F8FC030B6974
:1031900043F020030B6100BF00BF00BF0B6843F08A
:1031A00020030B600B6843F480730B6000BF00BF0B
:1031B00000BF0B6843F400730B600B6943F40073AA
:1031C0000B610B6843F480730B600B6843F02003C2
:1031D0000B60C1F8FC030B6943F020030B6100BFD7
:1031E00000BF00BF0B6843F020030B600B6843F483
:1031F00080730B6000BF00BF00BF0B6843F4007317
:103200000B600B6943F400730B610B6843F480732C
:103210000B600B6843F020030B60C1F8FC030B69E3
:1032200043F020030B6100BF00BF00BF0B6843F0F9
:1032300020030B600B6843F480730B6000BF00BF7A
:1032400000BF0B6843F400730B600B6943F4007319
:103250000B610B6843F480730B600B6843F0200331
:103260000B60C1F8FC030B6943F020030B6100BF46
:1032700000BF00BF0B6843F020030B600B6843F4F2
:1032800080730B6000BF00BF00BF0B6843F4007386
:103290000B607FF449AF70472DE9F0410A78FAB12D
:1032A00047F2C62804464D1C002740F23F16C0F6E0
:1032B000000800BFA2F12000C1B2490051FA80F01D
:1032C00008EB0012B1B2204600F00CF8EA5D002ACB
:1032D00008BFBDE8F081103E132F07F10107E9D3C5
:1032E000BDE8F0812DE9F04740F21843C4F6000331
:1032F0001F694FF0200C47F400771F611F694FF0E2
:10330000210E47F480771F611F6840F2180947F0CB
:1033100020071F60C3F8FCC31F6940F2A20A47F0F0
:1033200020071F6100BF00BF00BF1F684FF02208C9
:1033300047F020071F601F68C2F2000947F480773A
:103340001F60C3F8FC031F69C2F2000A47F02007A0
:103350001F6100BF00BF00BF1F6847F020071F604C
:103360001F6847F480771F601F6947F400771F616B
:103370001F6947F480771F611F6847F020071F60AF
:10338000C3F8FCE31C6944F020041C6100BF00BFCB
:1033900000BF1C6844F020041C601C6844F4807466
:1033A0001C60C3F8FC131C6944F020041C6100BFBE
:1033B00000BF00BF1C6844F020041C601C6844F47B
:1033C00080741C60002400BF1D6945F400751D61F8
:1033D0001D6945F480751D611D6845F020051D605F
:1033E000C3F8FC831D6945F020051D6100BF00BFC7
:1033F00000BF1D6845F020051D601D6845F48075FF
:103400001D6000BF00BF00BF1D6845F400751D6052
:10341000002500BF32F81460EE40F607564608BF9C
:103420004E4636881F6947F400771F611F6847F4CE
:1034300080771F601F6847F020071F60C3F8FC6398
:103440001E6946F020061E6100BF00BF00BF1E6857
:1034500046F020061E601E6846F480761E6000BF9F
:1034600000BF00BF1E6846F400761E6032F814608C
:10347000EE40B607564658BF4E4636881F6947F499
:1034800000771F611F6847F480771F601F6847F04F
:1034900020071F60C3F8FC631E6946F020061E610A
:1034A00000BF00BF00BF1E6846F020061E601E68F9
:1034B00046F480761E6000BF00BF00BF1E6846F461
:1034C00000761E6032F81460EE407607564658BF0C
:1034D0004E4636881F6947F400771F611F6847F41E
:1034E00080771F601F6847F020071F60C3F8FC63E8
:1034F0001E6946F020061E6100BF00BF00BF1E68A7
:1035000046F020061E601E6846F480761E6000BFEE
:1035100000BF00BF1E6846F400761E6032F81460DB
:10352000EE403607564658BF4E4636881F6904356A
:1035300047F400771F611F68102D47F480771F60E4
:103540001F6847F020071F60C3F8FC631E6946F040
:1035500020061E6100BF00BF00BF1E6846F02006A7
:103560001E601E6846F480761E6000BF00BF00BF6C
:103570001E6846F400761E607FF44CAF1D69013072
:1035800045F400751D611D69013445F480751D61A8
:103590001D68182C45F020051D60C3F8FCC31D698B
:1035A00045F020051D6100BF00BF00BF1D6845F04C
:1035B00020051D601D6845F480751D60C5B2C3F807
:1035C000FC531D6945F020051D6100BF00BF00BF11
:1035D0001D6845F020051D601D6845F480751D605F
:1035E0001D6945F400751D611D6945F480751D61F7
:1035F0001D6845F020051D60C3F8FCE31D6945F01A
:1036000020051D6100BF00BF00BF1D6845F02005FB
:103610001D601D6845F480751D60C3F8FC131D69AD
:1036200045F020051D6100BF00BF00BF1D6845F0CB
:1036300020051D601D6845F480751D6008BFBDE84C
:10364000F087C1E62DE9F04F8BB0002641F24C0027
:103650000596C4F20200016840F2184541F00401E9
:1036600001600168C4F6000501F0040106910699A5
:10367000016801AC41F001010160016840F61409E4
:1036800001F00101069106990168C4F6000941F0B4
:10369000020101600068214600F0020006900698D1
:1036A0004FF44870019001200290A5F11800012705
:1036B000CDE90366FDF78EF84FF48070CDE9010780
:1036C0004FF090402146CDE90366FDF783F84FF6B1
:1036D000FF7005F57A7406904FF0030806A920469E
:1036E0000A964FF6FF7B0797CDE90868FDF772F859
:1036F0004FF6004ACFF6FF7A55F80A0006A940F4C3
:10370000807045F80A0028684FF6FF7740F408708B
:103710002860286940F400702861286940F48070AE
:103720002861286840F020002860C9F800602869F6
:1037300040F02000286100BF00BF00BF286840F0B3
:1037400020002860286840F48070286020460A968F
:10375000CDF818B0CDF82480CDE90766FDF73AF82A
:103760004FF6104BCFF6FF7B55F80B0007A940F43E
:10377000807045F80B0000BF00BF00BFD5F8F8937C
:1037800055F80A0040F4807045F80A00012081E8ED
:10379000410106A920460A960697FDF71BF82868FE
:1037A00048F2302140F40070286040F2A400C2F2D8
:1037B0000000A0F800900088884203D100F088FA49
:1037C00002E000BF00F0F8FF2869002640F4007016
:1037D000286128694FF6FF7840F4807028612868D6
:1037E0004FF0030940F02000286040F61400C4F6B2
:1037F00000000660286906A940F02000286100BF8B
:1038000000BF00BF286840F020002860286840F40E
:103810008070286020460A96CDE90686CDE90869C1
:10382000FCF7D8FF55F80B0007A940F4807045F865
:103830000B0000BF00BF00BFD5F8F87355F80A00B1
:1038400040F4807045F80A00012081E8410206A991
:1038500020460A96CDF81880FCF7BCFF286840F493
:103860000070286040F2A400C2F2000007800BB094
:10387000BDE8F08F81B0ADF80200BDF8020040F263
:103880001801C2F20001088001B0704781B0ADF8A4
:103890000200BDF8020040F2A201C2F2000108805D
:1038A00001B070472DE9F04387B04FF0000841F2B6
:1038B0004C00CDF81880C4F20200016840F6000503
:1038C00041F0040101600168C4F6000501F0040143
:1038D000019101990168012241F020010160016814
:1038E0004FF47F4601F02001019101990168012701
:1038F00041F001010160016801F0010101910199AC
:10390000016841F002010160016801F002010191CA
:103910000199016841F00801016000684FF47F419E
:1039200000F00800019001982846FDF72FF805F5F2
:1039300080642046042100224FF00409FDF726F898
:1039400002A880E8C00102AE28463146CDF81480B6
:10395000FCF740FF4FF090403146CDE902780497E4
:10396000FCF738FF0720CDE90208A5F58060314655
:103970000497FCF72FFF20463146CDE90297CDE9A9
:103980000488FCF727FF07B0BDE8F083B0B59AB014
:1039900001A83421FCF7AFFD40F2A80044F6000571
:1039A000C2F20000C4F2010540F21F31002263237D
:1039B000C0E90051C0E90223C0E904228261FDF799
:1039C00097FF002818BFFCF775FE40F2A800C2F26E
:1039D0000000FEF74BFC002818BFFCF76BFE6020D0
:1039E0000E900A200F9040F2A8000024C2F20000BE
:1039F0000EA90022CDE91044CDE912441494FEF73B
:103A00004DFA002818BFFCF755FE4FF400500594FE
:103A1000CDE90344CDE90144CDE906040D9440F21B
:103A2000A804C2F2000401A92046FDF7A7FE002861
:103A300018BFFCF73FFE2068A84211D0B0F1804FBC
:103A400029D141F24C00C4F20200016841F00101A9
:103A50000160006800F001001590159802200DE04B
:103A600041F24C00C4F20200016841F00101016022
:103A7000006800F001001590159880201590022034
:103A800016900020CDE917000120199015A94FF0DC
:103A90009040FCF79FFE1AB0B0BD000010B594B086
:103AA00040F2F4000021C2F200004FF0804240F2E8
:103AB0001F3363240E91CDE90C11CDE90911CDE935
:103AC0000711CDE90511CDE90311CDE90111C0E9D7
:103AD0000023C0E9021401618161FDF709FF00289C
:103AE00018BFFCF7E7FD4FF480500B9040F2F40054
:103AF000C2F200000BA9FDF7C5FF002818BFFCF7B4
:103B0000D9FD40F2F400C2F20000FEF7AFFB00283E
:103B100018BFFCF7CFFD40F2F4000024C2F2000011
:103B200008A908940A94FDF78FFE002818BFFCF737
:103B3000C1FD602001900A20CDE90204059440F205
:103B4000F404C2F2000401A920460422FEF7A6F9FB
:103B5000002818BFFCF7AEFD206844F60001C4F24F
:103B60000101884212D0B0F1804F2AD141F24C00BD
:103B7000C4F20200016841F001010160006800F038
:103B800001000F900F9802200EE000BF41F24C00A0
:103B9000C4F20200016841F001010160006800F018
:103BA00001000F900F9880200F90022010900020AD
:103BB000CDE91100012013900FA94FF09040FCF7C0
:103BC00009FE14B010BD000080B588B040F240106E
:103BD00040F200420021C2F20000C4F200024F2372
:103BE00042F20F7C0791CDE905110291C0E9002353
:103BF000C0E9021C01618161FDF77AFE002818BF4F
:103C0000FCF758FD4FF48050049040F24010C2F28F
:103C1000000004A9FDF736FF002818BFFCF74AFD95
:103C200000200190039040F24010C2F2000001A970
:103C3000FDF70AFE002818BFFCF73CFD08B080BD68
:103C400080B540F28C1043F60001C2F20000C4F2CD
:103C5000010100234FF00C0C4FF4165280E80E00C7
:103C6000C0E90333C0E905C3C0E90733C0E909333C
:103C7000FFF73CF8002818BFFCF71CFD40F28C1041
:103C8000C2F200000021FEF7D1FC002818BFFCF7AB
:103C900011FD40F28C10C2F200000021FEF780FC02
:103CA000002818BFFCF706FD40F28C10C2F200009D
:103CB000FEF756FC002808BF80BDBDE88040FCF739
:103CC000F9BC0000FEE70000FEE7000070470000BE
:103CD00040F21840C4F600000169002241F400716E
:103CE000016101694FF0030C41F4807101610168C9
:103CF00041F020010160C0F8FC23016941F020017E
:103D0000016100BF00BF00BF016841F020010160F8
:103D1000016841F4807101600121C0F8FC1303695E
:103D200043F02003036100BF00BF00BF036843F0FE
:103D300020030360036843F480730360036943F462
:103D400000730361036943F480730361036843F004
:103D500020030360C0F8FC13036943F020030361F0
:103D600000BF00BF00BF036843F020030360036887
:103D700043F480730360C0F8FC23026942F0200220
:103D8000026100BF00BF00BF026842F02002026073
:103D9000026842F480720260026942F400720261B9
:103DA000026942F480720261026842F020020260FD
:103DB0001022C0F8FC23026942F02002026100BF19
:103DC00000BF00BF026842F020020260026842F4B5
:103DD0008072026041F29072C0F8FC23026942F0E6
:103DE0002002026100BF00BF00BF026842F0200253
:103DF0000260026842F480720260026942F400725A
:103E00000261026942F480720261026842F020029B
:103E100002606022C0F8FC23026942F020020261C5
:103E200000BF00BF00BF026842F0200202600268CB
:103E300042F4807202604FF41C52C0F8FC23026905
:103E400042F02002026100BF00BF00BF026842F0E2
:103E500020020260026842F480720260026942F449
:103E600000720261026942F480720261026842F0EB
:103E7000200202606122C0F8FC23026942F02002A5
:103E8000026100BF00BF00BF026842F02002026072
:103E9000026842F480720260C0F8FC13016941F0CC
:103EA0002001016100BF00BF00BF016841F0200197
:103EB0000160016841F480710160016941F40071A1
:103EC0000161016941F480710161016841F02001E3
:103ED00001604621C0F8FC13016941F02001016135
:103EE00000BF00BF00BF016841F020010160016810
:103EF00041F4807101600221C0F8FC13026942F0B4
:103F00002002026100BF00BF00BF026842F0200231
:103F10000260026842F480720260026942F4007238
:103F20000261026942F480720261026842F020027A
:103F300002601322C0F8FC23026942F020020261F1
:103F400000BF00BF00BF026842F0200202600268AA
:103F500042F48072026048F21002C0F8FC23026949
:103F600042F02002026100BF00BF00BF026842F0C1
:103F700020020260026842F480720260026942F428
:103F800000720261026942F480720261026842F0CA
:103F9000200202601222C0F8FC23026942F02002D3
:103FA000026100BF00BF00BF026842F02002026051
:103FB000026842F48072026048F2FE02C0F8FC23FC
:103FC000026942F02002026100BF00BF00BF026828
:103FD00042F020020260026842F4807202600269CC
:103FE00042F400720261026942F480720261026866
:103FF00042F020020260C0F8FC13016941F0200188
:10400000016100BF00BF00BF016841F020010160F5
:10401000016841F4807101604FF4A061C0F8FC13A5
:10402000016941F02001016100BF00BF00BF0168CC
:1040300041F020010160016841F480710160016973
:1040400041F400710161016941F48071016101680D
:1040500041F020010160C0F8FCC3026942F0200277
:10406000026100BF00BF00BF026842F02002026090
:10407000026842F48072026041F23002C0F8FC2310
:10408000026942F02002026100BF00BF00BF026867
:1040900042F020020260026842F48072026002690B
:1040A00042F400720261026942F4807202610268A5
:1040B00042F0200202603022C0F8FC23026942F084
:1040C0002002026100BF00BF00BF026842F0200270
:1040D0000260026842F48072026040F20332C0F86B
:1040E000FC23036943F02003036100BF00BF00BF4E
:1040F000036843F020030360036843F480730360A4
:10410000036943F400730361036943F4807303613B
:10411000036843F0200303603123C0F8FC330369D4
:1041200043F02003036100BF00BF00BF036843F0FA
:1041300020030360036843F480730360C0F8FC232A
:10414000036943F02003036100BF00BF00BF0368A1
:1041500043F020030360036843F480730360036942
:1041600043F400730361036943F4807303610368DC
:1041700043F0200303603223C0F8FC33036943F0AB
:104180002003036100BF00BF00BF036843F02003AA
:104190000360036843F480730360C0F8FC23036981
:1041A00043F02003036100BF00BF00BF036843F07A
:1041B00020030360036843F480730360036943F4DE
:1041C00000730361036943F480730361036843F080
:1041D000200303603323C0F8FC33036943F020035A
:1041E000036100BF00BF00BF036843F0200303600A
:1041F000036843F4807303604FF44073C0F8FC33EA
:10420000016941F02001016100BF00BF00BF0168EA
:1042100041F020010160016841F480710160016991
:1042200041F400710161016941F48071016101682B
:1042300041F0200101603421C0F8FC13016941F014
:104240002001016100BF00BF00BF016841F02001F3
:104250000160016841F480710160C0F8FCC301692C
:1042600041F02001016100BF00BF00BF016841F0C3
:1042700020010160016841F480710160016941F42D
:1042800000710161016941F480710161016841F0CF
:10429000200101603521C0F8FC13016941F02001C3
:1042A000016100BF00BF00BF016841F02001016053
:1042B000016841F480710160C0F8FC23016941F09C
:1042C0002001016100BF00BF00BF016841F0200173
:1042D0000160016841F480710160016941F400717D
:1042E0000161016941F480710161016841F02001BF
:1042F00001603621C0F8FC13016941F02001016121
:1043000000BF00BF00BF016841F0200101600168EB
:1043100041F4807101601421C0F8FC13016941F07F
:104320002001016100BF00BF00BF016841F0200112
:104330000160016841F480710160016941F400711C
:104340000161016941F480710161016841F020015E
:1043500001603721C0F8FC13016941F020010161BF
:1043600000BF00BF00BF016841F02001016001688B
:1043700041F480710160C0F8FC23016941F0200123
:10438000016100BF00BF00BF016841F02001016072
:10439000016841F480710160016941F400710161BB
:1043A000016941F480710161016841F020010160FF
:1043B0003821C0F8FC13016941F02001016100BF00
:1043C00000BF00BF016841F020010160016841F4B5
:1043D00080710160C0F8FC23016941F02001016196
:1043E00000BF00BF00BF016841F02001016001680B
:1043F00041F480710160016941F40071016101695A
:1044000041F480710161016841F0200101603921AE
:10441000C0F8FC13016941F02001016100BF00BF39
:1044200000BF016841F020010160016841F4807122
:104430000160C0F8FC23016941F02001016100BF67
:1044400000BF00BF016841F020010160016841F434
:1044500080710160016941F400710161016941F4F9
:1044600080710161016841F0200101603A21C0F8CA
:10447000FC13016941F02001016100BF00BF00BFD2
:10448000016841F020010160016841F48071016020
:10449000C0F8FC33016941F02001016100BF00BF99
:1044A00000BF016841F020010160016841F48071A2
:1044B0000160016941F400710161016941F4807199
:1044C0000161016841F0200101603B21C0F8FC134B
:1044D000016941F02001016100BF00BF00BF016818
:1044E00041F020010160016841F480710160C0F871
:1044F000FCC3016941F02001016100BF00BF00BFA2
:10450000016841F020010160016841F4807101609F
:10451000016941F400710161016941F48071016137
:10452000016841F0200101603C21C0F8FC130169E1
:1045300041F02001016100BF00BF00BF016841F0F0
:1045400020010160016841F480710160C0F8FC2322
:10455000016941F02001016100BF00BF00BF016897
:1045600041F020010160016841F48071016001693E
:1045700041F400710161016941F4807101610168D8
:1045800041F0200101603D21C0F8FC13016941F0B8
:104590002001016100BF00BF00BF016841F02001A0
:1045A0000160016841F4807101604FF4A051C0F8CE
:1045B000FC13016941F02001016100BF00BF00BF91
:1045C000016841F020010160016841F480710160DF
:1045D000016941F400710161016941F48071016177
:1045E000016841F0200101609221C0F8FC130169CB
:1045F00041F02001016100BF00BF00BF016841F030
:1046000020010160016841F4807101604FF4007184
:10461000C0F8FC13016941F02001016100BF00BF37
:1046200000BF016841F020010160016841F4807120
:104630000160016941F400710161016941F4807117
:104640000161016841F0200101609321C0F8FC1371
:10465000016941F02001016100BF00BF00BF016896
:1046600041F020010160016841F480710160C0F8EF
:10467000FC23016941F02001016100BF00BF00BFC0
:10468000016841F020010160016841F4807101601E
:10469000016941F400710161016941F480710161B6
:1046A000016841F0200101609021C0F8FC1301690C
:1046B00041F02001016100BF00BF00BF016841F06F
:1046C00020010160016841F48071016040F60D0134
:1046D000C0F8FC13016941F02001016100BF00BF77
:1046E00000BF016841F020010160016841F4807160
:1046F0000160016941F400710161016941F4807157
:104700000161016841F020010160C0F8FCC301694A
:1047100041F02001016100BF00BF00BF016841F00E
:1047200020010160016841F48071016041F21801CB
:10473000C0F8FC13016941F02001016100BF00BF16
:1047400000BF016841F020010160016841F48071FF
:104750000160016941F400710161016941F48071F6
:104760000161016841F0200101600721C0F8FC13DC
:10477000016941F02001016100BF00BF00BF016875
:1047800041F020010160016841F48071016040F254
:104790007311C0F8FC13016941F02001016100BFF1
:1047A00000BF00BF016841F020010160016841F4D1
:1047B00080710160704700002DE9F04F81B040F238
:1047C0001844C4F6000420694FF0120940F4007048
:1047D00020612069002540F4807020612068112646
:1047E00040F020002060E320C4F8FC0320694FF073
:1047F000130B40F02000206100BF00BF00BF206805
:10480000102740F02000206020684FF0070840F497
:104810008070206043F20800C4F8FC03206940F077
:104820002000206100BF00BF00BF206840F02000D2
:104830002060206840F480702060206940F400709F
:104840002061206940F480702061206840F02000E1
:104850002060E720C4F8FC03206940F020002061BC
:1048600000BF00BF00BF206840F02000206020682B
:1048700040F480702060C4F8FC93206940F0200070
:10488000206100BF00BF00BF206840F02000206012
:10489000206840F480702060206940F4007020613E
:1048A000206940F480702061206840F02000206082
:1048B000EF20C4F8FC03206940F02000206100BF15
:1048C00000BF00BF206840F020002060206840F456
:1048D0008070206041F23120C4F8FC03206940F070
:1048E0002000206100BF00BF00BF206840F0200012
:1048F0002060206840F480702060206940F40070DF
:104900002061206940F480702061206840F0200020
:1049100020600120C4F8FC03206940F020002061E1
:1049200000BF00BF00BF206840F02000206020686A
:1049300040F480702060C4F8FC53206940F02000EF
:10494000206100BF00BF00BF206840F02000206051
:10495000206840F480702060206940F4007020617D
:10496000206940F480702061206840F020002060C1
:104970000220C4F8FC03206940F02000206100BF41
:1049800000BF00BF206840F020002060206840F495
:10499000807020604FF4E060C4F8FC03206940F0B0
:1049A0002000206100BF00BF00BF206840F0200051
:1049B0002060206840F480702060206940F400701E
:1049C0002061206940F480702061206840F0200060
:1049D00020600320C4F8FC03206940F0200020611F
:1049E00000BF00BF00BF206840F0200020602068AA
:1049F00040F48070206041F23000C4F8FC0320696C
:104A000040F02000206100BF00BF00BF206840F0E0
:104A100020002060206840F480702060206940F40D
:104A200000702061206940F480702061206840F0AF
:104A3000200020600420C4F8FC03206940F020001E
:104A4000206100BF00BF00BF206840F02000206050
:104A5000206840F480702060C4F8FC53206940F066
:104A60002000206100BF00BF00BF206840F0200090
:104A70002060206840F480702060206940F400705D
:104A80002061206940F480702061206840F020009F
:104A900020600820C4F8FC03206940F02000206159
:104AA00000BF00BF00BF206840F0200020602068E9
:104AB00040F48070206040F20720C4F8FC032069B5
:104AC00040F02000206100BF00BF00BF206840F020
:104AD00020002060206840F480702060206940F44D
:104AE00000702061206940F480702061206840F0EF
:104AF000200020600920C4F8FC03206940F0200059
:104B0000206100BF00BF00BF206840F0200020608F
:104B1000206840F480702060C4F8FC53206940F0A5
:104B20002000206100BF00BF00BF206840F02000CF
:104B30002060206840F480702060206940F400709C
:104B40002061206940F480702061206840F02000DE
:104B500020600A20C4F8FC03206940F02000206196
:104B600000BF00BF00BF206840F020002060206828
:104B700040F480702060C4F8FC53206940F02000AD
:104B8000206100BF00BF00BF206840F0200020600F
:104B9000206840F480702060206940F4007020613B
:104BA000206940F480702061206840F0200020607F
:104BB0000C20C4F8FC03206940F02000206100BFF5
:104BC00000BF00BF206840F020002060206840F453
:104BD00080702060C4F8FC53206940F02000206100
:104BE00000BF00BF00BF206840F0200020602068A8
:104BF00040F480702060206940F4007020612069DA
:104C000040F480702061206840F0200020600D207A
:104C1000C4F8FC03206940F02000206100BF00BF01
:104C200000BF206840F020002060206840F48070C1
:104C30002060C4F8FC53206940F02000206100BFD0
:104C400000BF00BF206840F020002060206840F4D2
:104C500080702060206940F400702061206940F479
:104C600080702061206840F0200020600F20C4F890
:104C7000FC03206940F02000206100BF00BF00BF9E
:104C8000206840F020002060206840F480702060A0
:104C9000C4F8FC53206940F02000206100BF00BF31
:104CA00000BF206840F020002060206840F4807041
:104CB0002060206940F400702061206940F4807019
:104CC0002061206840F0200020601020C4F8FC0320
:104CD000206940F02000206100BF00BF00BF2068B5
:104CE00040F020002060206840F480702060C4F80C
:104CF000FC53206940F02000206100BF00BF00BFCE
:104D0000206840F020002060206840F4807020601F
:104D1000206940F400702061206940F480702061B7
:104D2000206840F020002060C4F8FC63206940F057
:104D30002000206100BF00BF00BF206840F02000BD
:104D40002060206840F4807020600720C4F8FC03D5
:104D5000206940F02000206100BF00BF00BF206834
:104D600040F020002060206840F4807020602069BE
:104D700040F400702061206940F480702061206858
:104D800040F020002060C4F8FC93206940F020002F
:104D9000206100BF00BF00BF206840F020002060FD
:104DA000206840F480702060C4F8FC53206940F013
:104DB0002000206100BF00BF00BF206840F020003D
:104DC0002060206840F480702060206940F400700A
:104DD0002061206940F480702061206840F020004C
:104DE0002060C4F8FCB3206940F02000206100BFBF
:104DF00000BF00BF206840F020002060206840F421
:104E000080702060C4F8FC53206940F020002061CD
:104E100000BF00BF00BF206840F020002060206875
:104E200040F480702060C820FBF7C0FC20694FF080
:104E3000320A40F400702061206940F480702061E3
:104E4000206840F020002060C4F8FC73206910271F
:104E500040F02000206100BF00BF00BF206840F08C
:104E600020002060206840F48070206041F2906053
:104E7000C4F8FC03206940F02000206100BF00BF9F
:104E800000BF206840F020002060206840F480705F
:104E90002060206940F400702061206940F4807037
:104EA0002061206840F020002060C4F8FC63206985
:104EB00040F02000206100BF00BF00BF206840F02C
:104EC00020002060206840F48070206040F227209D
:104ED000C4F8FC03206940F02000206100BF00BF3F
:104EE00000BF206840F020002060206840F48070FF
:104EF00020603220FBF75AFC206940F400702061EA
:104F0000206940F480702061206840F0200020601B
:104F1000C4F8FC93206940F02000206100BF00BF6E
:104F200000BF206840F020002060206840F48070BE
:104F300020601D20C4F8FC03206940F0200020619F
:104F400000BF00BF00BF206840F020002060206844
:104F500040F4807020603220FBF728FC206940F488
:104F600000702061206940F480702061206840F06A
:104F700020002060C4F8FCB3206940F020002061CC
:104F800000BF00BF00BF206840F020002060206804
:104F900040F4807020604FF40060C4F8FC03206986
:104FA00040F02000206100BF00BF00BF206840F03B
:104FB00020002060206840F480702060206940F468
:104FC00000702061206940F480702061206840F00A
:104FD000200020602920C4F8FC03206940F0200054
:104FE000206100BF00BF00BF206840F020002060AB
:104FF000206840F4807020601420C4F8FC0320690D
:1050000040F02000206100BF00BF00BF206840F0DA
:1050100020002060206840F480702060206940F407
:1050200000702061206940F480702061206840F0A9
:10503000200020602B20C4F8FC03206940F02000F1
:10504000206100BF00BF00BF206840F0200020604A
:10505000206840F4807020600B20C4F8FC032069B5
:1050600040F02000206100BF00BF00BF206840F07A
:1050700020002060206840F4807020603220FBF720
:1050800095FB2069032140F400702061206907220C
:1050900040F480702061206840F0200020602020D3
:1050A000C4F8FC03206940F02000206100BF00BF6D
:1050B00000BF206840F020002060206840F480702D
:1050C0002060C4F8FC53206940F02000206100BF3C
:1050D00000BF00BF206840F020002060206840F43E
:1050E00080702060206940F400702061206940F4E5
:1050F00080702061206840F0200020602120C4F8EA
:10510000FC03206940F02000206100BF00BF00BF09
:10511000206840F020002060206840F4807020600B
:10512000C4F8FC53206940F02000206100BF00BF9C
:1051300000BF206840F020002060206840F48070AC
:105140002060206940F400702061206940F4807084
:105150002061206840F0200020603020C4F8FC036B
:10516000206940F02000206100BF00BF00BF206820
:1051700040F020002060206840F480702060C4F877
:10518000FC83206940F02000206100BF00BF00BF09
:10519000206840F020002060206840F4807020608B
:1051A000206940F400702061206940F48070206123
:1051B000206840F0200020603120C4F8FC03206902
:1051C00040F02000206100BF00BF00BF206840F019
:1051D00020002060206840F48070206040F207705A
:1051E000C4F8FC03206940F02000206100BF00BF2C
:1051F00000BF206840F020002060206840F48070EC
:105200002060206940F400702061206940F48070C3
:105210002061206840F020002060C4F8FCA32069D1
:1052200040F02000206100BF00BF00BF206840F0B8
:1052300020002060206840F4807020600620C4F8C0
:10524000FC03206940F02000206100BF00BF00BFC8
:10525000206840F020002060206840F480702060CA
:10526000206940F400702061206940F48070206162
:10527000206840F0200020603520C4F8FC0320693D
:1052800040F02000206100BF00BF00BF206840F058
:1052900020002060206840F48070206040F204709C
:1052A000C4F8FC03206940F02000206100BF00BF6B
:1052B00000BF206840F020002060206840F480702B
:1052C0002060206940F400702061206940F4807003
:1052D0002061206840F0200020603620C4F8FC03E4
:1052E000206940F02000206100BF00BF00BF20689F
:1052F00040F020002060206840F48070206041F67B
:105300000470C4F8FC03206940F02000206100BF55
:1053100000BF00BF206840F020002060206840F4FB
:1053200080702060206940F400702061206940F4A2
:1053300080702061206840F0200020603720C4F891
:10534000FC03206940F02000206100BF00BF00BFC7
:10535000206840F020002060206840F480702060C9
:105360000420C4F8FC03206940F02000206100BF45
:1053700000BF00BF206840F020002060206840F49B
:1053800080702060206940F400702061206940F442
:1053900080702061206840F0200020603820C4F830
:1053A000FC03206940F02000206100BF00BF00BF67
:1053B000206840F020002060206840F48070206069
:1053C000C4F8FC53206940F02000206100BF00BFFA
:1053D00000BF206840F020002060206840F480700A
:1053E0002060206940F400702061206940F48070E2
:1053F0002061206840F0200020603920C4F8FC03C0
:10540000206940F02000206100BF00BF00BF20687D
:1054100040F020002060206840F48070206040F25E
:105420000670C4F8FC03206940F02000206100BF32
:1054300000BF00BF206840F020002060206840F4DA
:1054400080702060206940F400702061206940F481
:1054500080702061206840F0200020603C20C4F86B
:10546000FC03206940F02000206100BF00BF00BFA6
:10547000206840F020002060206840F480702060A8
:1054800040F20170C4F8FC03206940F02000206164
:1054900000BF00BF00BF206840F0200020602068EF
:1054A00040F480702060206940F400702061206921
:1054B00040F480702061206840F0200020603D2092
:1054C000C4F8FC03206940F02000206100BF00BF49
:1054D00000BF206840F020002060206840F4807009
:1054E00020600F20C4F8FC03206940F020002061F8
:1054F00000BF00BF00BF206840F02000206020688F
:1055000040F480702060206940F4007020612069C0
:1055100040F480702061206840F02000206050201E
:10552000C4F8FC03206940F02000206100BF00BFE8
:1055300000BF206840F020002060206840F48070A8
:105540002060C4F8FC53206940F02000206100BFB7
:1055500000BF00BF206840F020002060206840F4B9
:1055600080702060206940F400702061206940F460
:1055700080702061206840F0200020605120C4F835
:10558000FC03206940F02000206100BF00BF00BF85
:10559000206840F020002060206840F48070206087
:1055A000EF20C4F8FC03206940F02000206100BF18
:1055B00000BF00BF206840F020002060206840F459
:1055C00080702060206940F400702061206940F400
:1055D00080702061206840F0200020605220C4F8D4
:1055E000FC03206940F02000206100BF00BF00BF25
:1055F000206840F020002060206840F48070206027
:10560000C4F8FC53206940F02000206100BF00BFB7
:1056100000BF206840F020002060206840F48070C7
:105620002060206940F400702061206940F480709F
:105630002061206840F0200020605320C4F8FC0363
:10564000206940F02000206100BF00BF00BF20683B
:1056500040F020002060206840F48070206040F21C
:105660003F10C4F8FC03206940F02000206100BF17
:1056700000BF00BF206840F020002060206840F498
:1056800080702060206940F400702061206940F43F
:1056900080702061206840F0200020606020C4F805
:1056A000FC03206940F02000206100BF00BF00BF64
:1056B000206840F020002060206840F48070206066
:1056C0004FF41C50C4F8FC03206940F02000206116
:1056D00000BF00BF00BF206840F0200020602068AD
:1056E00040F480702060206940F4007020612069DF
:1056F00040F480702061206840F02000206061202C
:10570000C4F8FC03206940F02000206100BF00BF06
:1057100000BF206840F020002060206840F48070C6
:1057200020600120C4F8FC03206940F020002061C3
:1057300000BF00BF00BF206840F02000206020684C
:1057400040F480702060206940F40070206120697E
:1057500040F480702061206840F0200020606A20C2
:10576000C4F8FC03206940F02000206100BF00BFA6
:1057700000BF206840F020002060206840F4807066
:105780002060C4F8FC53206940F02000206100BF75
:1057900000BF00BF206840F020002060206840F477
:1057A00080702060206940F400702061206940F41E
:1057B00080702061206840F0200020608020C4F8C4
:1057C000FC03206940F02000206100BF00BF00BF43
:1057D000206840F020002060206840F48070206045
:1057E000C4F8FC53206940F02000206100BF00BFD6
:1057F00000BF206840F020002060206840F48070E6
:105800002060206940F400702061206940F48070BD
:105810002061206840F0200020608120C4F8FC0353
:10582000206940F02000206100BF00BF00BF206859
:1058300040F020002060206840F480702060C4F8B0
:10584000FC53206940F02000206100BF00BF00BF72
:10585000206840F020002060206840F480702060C4
:10586000206940F400702061206940F4807020615C
:10587000206840F0200020608220C4F8FC032069EA
:1058800040F02000206100BF00BF00BF206840F052
:1058900020002060206840F480702060C4F8FC5331
:1058A000206940F02000206100BF00BF00BF2068D9
:1058B00040F020002060206840F480702060206963
:1058C00040F400702061206940F4807020612068FD
:1058D00040F0200020608320C4F8FC03206940F0E1
:1058E0002000206100BF00BF00BF206840F0200002
:1058F0002060206840F480702060C4F8FC53206968
:1059000040F02000206100BF00BF00BF206840F0D1
:1059100020002060206840F480702060206940F4FE
:1059200000702061206940F480702061206840F0A0
:10593000200020608420C4F8FC03206940F020008F
:10594000206100BF00BF00BF206840F02000206041
:10595000206840F480702060C4F8FC53206940F057
:105960002000206100BF00BF00BF206840F0200081
:105970002060206840F480702060206940F400704E
:105980002061206940F480702061206840F0200090
:1059900020608520C4F8FC03206940F020002061CD
:1059A00000BF00BF00BF206840F0200020602068DA
:1059B00040F480702060C4F8FC53206940F020005F
:1059C000206100BF00BF00BF206840F020002060C1
:1059D000206840F480702060206940F400702061ED
:1059E000206940F480702061206840F02000206031
:1059F0009020C4F8FC03206940F02000206100BF23
:105A000000BF00BF206840F020002060206840F404
:105A100080702060C4F8FC73206940F02000206191
:105A200000BF00BF00BF206840F020002060206859
:105A300040F480702060206940F40070206120698B
:105A400040F480702061206840F0200020609220A7
:105A5000C4F8FC03206940F02000206100BF00BFB3
:105A600000BF206840F020002060206840F4807073
:105A70002060C4F8FC53206940F02000206100BF82
:105A800000BF00BF206840F020002060206840F484
:105A900080702060206940F400702061206940F42B
:105AA00080702061206840F0200020609320C4F8BE
:105AB000FC03206940F02000206100BF00BF00BF50
:105AC000206840F020002060206840F48070206052
:105AD000C4F8FC13206940F02000206100BF00BF23
